:020000040800F2
:1000000000280020B5130008451300084B13000812
:1000100051130008571300085D130008000000008A
:100020000000000000000000000000006313000852
:100030006F130008000000007B13000887130008FE
:10004000FD130008FD130008FD130008FD13000850
:10005000FD130008FD130008FD130008FD13000840
:10006000FD130008FD130008FD130008FD13000830
:10007000FD130008FD130008FD130008FD13000820
:10008000FD130008FD130008FD130008FD13000810
:10009000FD130008FD130008FD130008FD13000800
:1000A000FD130008FD130008FD130008FD130008F0
:1000B00095130008FD13000800000000FD13000860
:1000C000FD1300080000000000000000FD13000800
:1000D00000000000FD130008FD13000800000000F0
:1000E000FD130008FD130008FD13000800000000C8
:1000F0000000000000000000000000000000000000
:0C01000000000000000000005FF808F1A3
:10010C0010B5054C237833B9044B13B10448AFF345
:10011C0000800123237010BD680000200000000047
:10012C00542A000808B5034B1BB103490348AFF32D
:10013C00008008BD000000006C000020542A00085C
:10014C0080B400AF064B1B68012B04D1044B00227A
:10015C001A60012300E000231846BD4680BC70479E
:10016C008400002080B400AF064B1B68012B04D127
:10017C00044B00221A60012300E000231846BD4600
:10018C0080BC70478800002080B400AF064B1B6811
:10019C00012B04D1044B00221A60012300E0002340
:1001AC001846BD4680BC70478C00002080B400AF60
:1001BC00034B01221A6000BFBD4680BC704700BFD4
:1001CC008400002080B400AF034B01221A6000BFF2
:1001DC00BD4680BC704700BF8800002080B400AFD3
:1001EC00034B01221A6000BFBD4680BC704700BFA4
:1001FC008C00002080B500AF1E4B1B681E4A13609C
:10020C001E4B1B681B4A136004211D4801F0DCFBCC
:10021C0003461A46194B1A60174B1A68154B1B6884
:10022C009A4225D1134B1A68144B1B689A421FD162
:10023C00144B1A68114B1B689A420DD00F4B1B685C
:10024C00104A13600D4B1B68002B11D1FFF7AEFF4A
:10025C000D4BC8221A600BE00B4B1B68013B0A4A82
:10026C001360094B1B68002B02D1064B01221A604C
:10027C0000BF80BD0400002000000020080000200A
:10028C00000801400C0000203000002080B500AFB9
:10029C001E4B1B681E4A13601E4B1B681B4A1360C7
:1002AC0008211D4801F090FB03461A46194B1A60B1
:1002BC00174B1A68154B1B689A4225D1134B1A68B9
:1002CC00144B1B689A421FD1144B1A68114B1B68B4
:1002DC009A420DD00F4B1B68104A13600D4B1B68D4
:1002EC00002B11D1FFF76EFF0D4BC8221A600BE0EB
:1002FC000B4B1B68013B0A4A1360094B1B68002B14
:10030C0002D1064B01221A6000BF80BD14000020F0
:10031C001000002018000020000801401C000020E4
:10032C003400002080B500AF1E4B1B681E4A1360C2
:10033C001E4B1B681B4A136010211D4801F044FB27
:10034C0003461A46194B1A60174B1A68154B1B6853
:10035C009A4225D1134B1A68144B1B689A421FD131
:10036C00144B1A68114B1B689A420DD00F4B1B682B
:10037C00104A13600D4B1B68002B11D1FFF72EFF99
:10038C000D4BC8221A600BE00B4B1B68013B0A4A51
:10039C001360094B1B68002B02D1064B01221A601B
:1003AC0000BF80BD24000020200000202800002079
:1003BC00000801402C0000203800002080B500AF60
:1003CC0001220121114801F016FB012202210F48E4
:1003DC0001F011FB012204210C4801F00CFB01225D
:1003EC0008210A4801F007FB01221021074801F0FF
:1003FC0002FB01222021054801F0FDFA01224021D7
:10040C00024801F0F8FA00BF80BD00BF000C0140AB
:10041C0080B582B000AF78607B68042B00F29F80BF
:10042C0001A252F823F000BF49040008830400081D
:10043C00BD040008F7040008310500080022402123
:10044C00494801F0D8FA01228021474801F0D3FA3B
:10045C0001224FF48071444801F0CDFA01224FF48F
:10046C000071414801F0C7FA01224FF480613E4807
:10047C0001F0C1FA74E0012240213B4801F0BBFAC3
:10048C0000228021384801F0B6FA01224FF4807125
:10049C00354801F0B0FA01224FF40071324801F0F6
:1004AC00AAFA01224FF480612F4801F0A4FA57E018
:1004BC00012240212C4801F09EFA012280212A4879
:1004CC0001F099FA00224FF48071274801F093FA59
:1004DC0001224FF40071244801F08DFA01224FF4EF
:1004EC008061214801F087FA3AE0012240211E4840
:1004FC0001F081FA012280211B4801F07CFA0122D3
:10050C004FF48071184801F076FA00224FF4007114
:10051C00154801F070FA01224FF48061124801F085
:10052C006AFA1DE0012240210F4801F064FA012211
:10053C0080210D4801F05FFA01224FF480710A48C6
:10054C0001F059FA01224FF40071074801F053FAF7
:10055C0000224FF48061044801F04DFA00E000BF26
:10056C0000BF0837BD4680BD0008014080B582B091
:10057C0000AF78607B68042B43D801A252F823F0BB
:10058C00A1050008B7050008CD050008E305000823
:10059C00F90500080020FFF73BFF1C4A7B6852F866
:1005AC002330184600F034F82CE00120FFF730FF20
:1005BC00164A7B6852F82330184600F029F821E0DF
:1005CC000220FFF725FF114A7B6852F823301846AA
:1005DC0000F01EF816E00320FFF71AFF0B4A7B68A9
:1005EC0052F82330184600F013F80BE00420FFF704
:1005FC000FFF064A7B6852F82330184600F008F8C3
:10060C0000E000BF00BF0837BD4680BD3C000020A5
:10061C0080B582B000AF7860FFF7D0FE7B68092B05
:10062C0000F2178101A252F823F000BF6106000806
:10063C009F060008B5060008E90600081D0700081B
:10064C00470700087B070008B9070008D90700080E
:10065C002108000800220121804801F0CCF9002279
:10066C0002217E4801F0C7F9002204217B4801F0E9
:10067C00C2F900220821794801F0BDF900221021AD
:10068C00764801F0B8F900222021744801F0B3F942
:10069C00E0E000220221714801F0ADF900220421B2
:1006AC006E4801F0A8F9D5E0002201216B4801F059
:1006BC00A2F900220221694801F09DF900220821CB
:1006CC00664801F098F900221021644801F093F972
:1006DC0000224021614801F08EF9BBE0002201218B
:1006EC005E4801F088F9002202215C4801F083F990
:1006FC0000220421594801F07EF9002208215748B4
:10070C0001F079F900224021544801F074F9A1E07C
:10071C0000220221514801F06EF9002204214F48B9
:10072C0001F069F9002220214C4801F064F9002203
:10073C0040214A4801F05FF98CE000220121474832
:10074C0001F059F900220421444801F054F9002227
:10075C000821424801F04FF9002220213F4801F0C6
:10076C004AF9002240213D4801F045F972E000228F
:10077C0001213A4801F03FF900220421374801F0E9
:10078C003AF900220821354801F035F900221021F0
:10079C00324801F030F900222021304801F02BF9C9
:1007AC00002240212D4801F026F953E000220121BE
:1007BC002A4801F020F900220221284801F01BF9F7
:1007CC0000220421254801F016F943E00022012102
:1007DC00224801F010F900220221204801F00BF907
:1007EC00002204211D4801F006F9002208211B48B3
:1007FC0001F001F900221021184801F0FCF8002248
:10080C002021164801F0F7F800224021134801F08E
:10081C00F2F81FE000220121104801F0ECF8002250
:10082C0002210E4801F0E7F8002204210B4801F0E8
:10083C00E2F800220821094801F0DDF8002220210D
:10084C00064801F0D8F800224021044801F0D3F802
:10085C0000E000BF00BF0837BD4680BD000C014062
:10086C0080B500AF594B1B68032B00F2A58001A289
:10087C0052F823F091080008BD080008150900087B
:10088C006D09000801224FF48061514801F0B3F862
:10089C00504B1B68504A13604E4B1B68642202FB82
:1008AC0003F3184600F084FB484B01221A608AE0DF
:1008BC0001224FF48061464801F09DF800224FF46C
:1008CC000061434801F097F8444B1B68012B07D19A
:1008DC00414B1B68013B404A1360642000F090FBC5
:1008EC003F4B1B68012B69D13E4B1B683A4A136086
:1008FC00364B03221A603B4B1B68642202FB03F34A
:10090C00184600F055FB59E001224FF400613048C5
:10091C0001F071F800224FF480512D4801F06BF872
:10092C002E4B1B68012B07D12B4B1B68013B2A4A12
:10093C001360642000F064FB294B1B68012B3FD132
:10094C00244B1B68244A1360204B01221A60214B54
:10095C001B68642202FB03F3184600F029FB2FE00E
:10096C0001224FF480511A4801F045F800224FF44F
:10097C008061174801F03FF8184B1B68012B07D119
:10098C00154B1B68013B144A1360642000F038FBC4
:10099C00134B1B68012B15D1134B1B680E4A1360AC
:1009AC000A4B02221A60104B1B68642202FB03F3F1
:1009BC00184600F0FDFA05E000BF04E000BF02E0BD
:1009CC0000BF00E000BF00BF80BD00BF940000204E
:1009DC00000C0140500000209C000020C8000020AA
:1009EC00B8000020580000205400002080B500AF53
:1009FC0000F000FD00F01CF900F056F900F0A0F931
:100A0C00774801F061FC642000F0FAFA142000F041
:100A1C000BFB012000F01CFB012000F02DFB012042
:100A2C0000F03EFB642000F04FFB642000F060FB04
:100A3C006C4B1B686C4A82FB03129210DB17D31AA7
:100A4C006A4A1360674B1968674B83FB01239A1042
:100A5C00CB17D21A13469B0013445B00CA1A634B84
:100A6C005A60634B1B68604A82FB03129210DB17BF
:100A7C00D31A5E4A93605E4B19685B4B83FB012370
:100A8C009A10CB17D21A13469B0013445B00CA1A58
:100A9C00564BDA60574B1B68012B13D1FFF78EFCBA
:100AAC00554B1B68042B02DD534B00221A60524B32
:100ABC001B685A1C50490A601846FFF757FD142052
:100ACC0000F0B2FAFFF7CCFE00F0ACF94B4B1B6810
:100ADC00012B04D1FFF78EFB012000F0B9FA484B33
:100AEC001B68012B04D1FFF7D1FB012000F0C4FAE5
:100AFC00444B1B68012B04D1FFF714FC012000F0C0
:100B0C00CFFA414B1B68012B06D120213F4800F046
:100B1C008AFF642000F0D8FAFFF712FB0346012B82
:100B2C000FD13B4B1B680133394A1360384B1B68A0
:100B3C00042B02DD364B01221A60354B1B682B4A05
:100B4C001361FFF70FFB0346012B2AD1304B1B68B7
:100B5C00042B1BD0042B26DC022B02D0032B0AD037
:100B6C0021E080212B4800F05EFF2B4B1B680133EA
:100B7C00294A136018E04FF48071264800F053FFA7
:100B8C00264B1B680133254A13600DE04FF40071AE
:100B9C00204800F048FF224B1B680133204A1360A9
:100BAC0002E000BF00E000BFFFF7EEFA0346012BA6
:100BBC007FF43EAF1B4B1A68174B1B681344194A42
:100BCC001360194B1A68154B1B681344164A1360B3
:100BDC00164B1A68124B1B681344144A136027E710
:100BEC00FC0000209C000020676666663C0000202C
:100BFC00A0000020D000002090000020D800002091
:100C0C00E0000020E8000020F00000200008014077
:100C1C00B0000020000C0140A4000020A80000201F
:100C2C00AC00002050000020540000205800002090
:100C3C0080B590B000AF07F11803282200211846A8
:100C4C0001F0FAFE3B1D00221A605A609A60DA60CD
:100C5C001A610223BB610123BB621023FB620023D8
:100C6C007B6307F11803184600F0F6FE0346002BD1
:100C7C0001D000F0D1F80F237B600023BB60002370
:100C8C00FB6000233B6100237B613B1D0021184668
:100C9C0001F062F90346002B01D000F0BDF800BF53
:100CAC004037BD4680BD000080B586B000AF07F16F
:100CBC00080300221A605A609A60DA603B460022F0
:100CCC001A605A601D4B4FF080421A601B4B41F664
:100CDC003F725A60194B00229A60184B0922DA6055
:100CEC00164B00221A61154B00229A61134801F031
:100CFC009BFA0346002B01D000F08EF84FF4805382
:100D0C00BB6007F1080319460C4801F031FC03469F
:100D1C00002B01D000F080F800233B6000237B60A7
:100D2C003B461946054801F0F9FD0346002B01D05E
:100D3C0000F072F800BF1837BD4680BDFC000020E3
:100D4C0080B586B000AF07F1080300221A605A6024
:100D5C009A60DA60284B9B69274A43F0040393613D
:100D6C00254B9B6903F004037B607B68224B9B69DA
:100D7C00214A43F0080393611F4B9B6903F008035E
:100D8C003B603B68002240F2E2711C4800F033FEED
:100D9C0000224FF6FF711A4800F02DFE40F2E2736C
:100DAC00BB600123FB6000233B6102237B6107F1E5
:100DBC0008031946114800F08DFC1C23BB6000236E
:100DCC00FB6001233B6107F1080319460B4800F057
:100DDC0081FC4FF6FF73BB600123FB6000233B617A
:100DEC0002237B6107F108031946054800F072FCE9
:100DFC0000BF1837BD4680BD0010024000080140FE
:100E0C00000C014080B582B000AF786000F084F92E
:100E1C0000BF0837BD4680BD80B400AF72B600BFBE
:100E2C00FEE7000080B500AF594B1B68032B00F2A6
:100E3C00A58001A252F823F0550E0008810E00087F
:100E4C00D90E0008310F000801224FF4004151481F
:100E5C0000F0D1FD504B1B68504A13604E4B1B6881
:100E6C00642202FB03F3184600F0B6F8484B032249
:100E7C001A608AE001224FF40051464800F0BBFD95
:100E8C0000224FF48041434800F0B5FD444B1B68F1
:100E9C00012B07D1414B1B68013B404A1360642076
:100EAC0000F026F93F4B1B68012B69D13A4B1B68AC
:100EBC003A4A1360364B03221A60374B1B68642284
:100ECC0002FB03F3184600F087F859E001224FF4B7
:100EDC008041304800F08FFD00224FF400412D4836
:100EEC0000F089FD2E4B1B68012B07D12B4B1B6887
:100EFC00013B2A4A1360642000F0FAF8294B1B6866
:100F0C00012B3FD1284B1B68244A1360204B012234
:100F1C001A60254B1B68642202FB03F3184600F091
:100F2C005BF82FE001224FF400411A4800F063FDFA
:100F3C0000224FF40051174800F05DFD184B1B6860
:100F4C00012B07D1154B1B68013B144A136064201D
:100F5C0000F0CEF8134B1B68012B15D1134B1B68FB
:100F6C000E4A13600A4B02221A60104B1B68642253
:100F7C0002FB03F3184600F02FF805E000BF04E075
:100F8C0000BF02E000BF00E000BF00BF80BD00BF9B
:100F9C0098000020000C014058000020A000002008
:100FAC00F8000020C0000020500000205400002059
:100FBC0080B483B000AF7860054A7B681360054B42
:100FCC0000221A6000BF0C37BD4680BC704700BFC2
:100FDC00B4000020B800002080B483B000AF78606B
:100FEC00054A7B681360054B00221A6000BF0C3762
:100FFC00BD4680BC704700BFBC000020C000002074
:10100C0080B483B000AF7860054A7B681360054BF1
:10101C0000221A6000BF0C37BD4680BC704700BF71
:10102C00C4000020C800002080B483B000AF7860FA
:10103C00054A7B681360054B00221A6000BF0C3711
:10104C00BD4680BC704700BFCC000020D000002003
:10105C0080B483B000AF7860054A7B681360054BA1
:10106C0000221A6000BF0C37BD4680BC704700BF21
:10107C00D4000020D800002080B483B000AF78608A
:10108C00054A7B681360054B00221A6000BF0C37C1
:10109C00BD4680BC704700BFDC000020E000002093
:1010AC0080B483B000AF7860054A7B681360054B51
:1010BC0000221A6000BF0C37BD4680BC704700BFD1
:1010CC00E4000020E800002080B483B000AF78601A
:1010DC00054A7B681360054B00221A6000BF0C3771
:1010EC00BD4680BC704700BFEC000020F000002023
:1010FC0080B483B000AF7860054A7B681360054B01
:10110C0000221A6000BF0C37BD4680BC704700BF80
:10111C00F4000020F800002080B400AF494B1B689D
:10112C00002B0BDD474B1B68013B464A1360454BBC
:10113C001B68002B02D1444B01221A60434B1B68E5
:10114C00002B0BDD414B1B68013B404A13603F4BAE
:10115C001B68002B02D13E4B01221A603D4B1B68D1
:10116C00002B0BDD3B4B1B68013B3A4A1360394BA0
:10117C001B68002B02D1384B01221A60374B1B68BD
:10118C00002B0BDD354B1B68013B344A1360334B92
:10119C001B68002B02D1324B01221A60314B1B68A9
:1011AC00002B0BDD2F4B1B68013B2E4A13602D4B84
:1011BC001B68002B02D12C4B01221A602B4B1B6895
:1011CC00002B0BDD294B1B68013B284A1360274B76
:1011DC001B68002B02D1264B01221A60254B1B6881
:1011EC00002B0BDD234B1B68013B224A1360214B68
:1011FC001B68002B02D1204B01221A601F4B1B686D
:10120C00002B0BDD1D4B1B68013B1C4A13601B4B59
:10121C001B68002B02D11A4B01221A60194B1B6858
:10122C00002B0BDD174B1B68013B164A1360154B4B
:10123C001B68002B02D1144B01221A6000BFBD4663
:10124C0080BC7047B4000020B8000020BC00002017
:10125C00C0000020C4000020C8000020CC000020EA
:10126C00D0000020D4000020D8000020DC0000209A
:10127C00E0000020E4000020E8000020EC0000204A
:10128C00F0000020F4000020F800002080B485B0AD
:10129C0000AF154B9B69144A43F001039361124B49
:1012AC009B6903F00103BB60BB680F4BDB690E4A03
:1012BC0043F08053D3610C4BDB6903F080537B60AC
:1012CC007B680A4B5B68FB60FB6823F0E063FB60A8
:1012DC00FB6843F08063FB60044AFB68536000BF0B
:1012EC001437BD4680BC704700100240000001401E
:1012FC0080B584B000AF78607B681B68B3F1804F19
:10130C0013D10C4BDB690B4A43F00103D361094B3E
:10131C00DB6903F00103FB60FB68002200211C2049
:10132C0000F0A1F91C2000F0BAF900BF1037BD463F
:10133C0080BD00BF0010024080B400AFFEE780B457
:10134C0000AFFEE780B400AFFEE780B400AFFEE76D
:10135C0080B400AFFEE780B400AF00BFBD4680BCD8
:10136C00704780B400AF00BFBD4680BC704780B4EE
:10137C0000AF00BFBD4680BC704780B500AF00F029
:10138C007FF800BF80BD000080B500AF024800F0C0
:10139C00E7FF00BF80BD00BFFC00002080B400AFA1
:1013AC0000BFBD4680BC70470C480D490D4A002358
:1013BC0002E0D458C4500433C4188C42F9D30A4AFE
:1013CC000A4C002301E013600432A242FBD3FFF766
:1013DC00E5FF01F00DFBFFF709FB70470000002053
:1013EC0068000020942A00086800002048010020B2
:1013FC00FEE7000080B500AF084B1B68074A43F0BE
:10140C0010031360032000F023F90F2000F008F8FC
:10141C00FFF73CFF0023184680BD00BF00200240B0
:10142C0080B582B000AF7860124B1A68124B1B78F3
:10143C0019464FF47A73B3FBF1F3B2FBF3F318468E
:10144C0000F03BF90346002B01D001230EE07B6832
:10145C000F2B0AD8002279684FF0FF3000F003F907
:10146C00064A7B681360002300E001231846083706
:10147C00BD4680BD5C0000206400002060000020A0
:10148C0080B400AF054B1B781A46054B1B68134400
:10149C00034A136000BFBD4680BC70476400002047
:1014AC004401002080B400AF024B1B681846BD46B7
:1014BC0080BC70474401002080B485B000AF7860D8
:1014CC007B6803F00703FB600C4BDB68BB60BA68FE
:1014DC004FF6FF031340BB60FB681A02BB68134353
:1014EC0043F0BF6343F40033BB60044ABB68D36072
:1014FC0000BF1437BD4680BC704700BF00ED00E054
:10150C0080B400AF044BDB681B0A03F007031846DA
:10151C00BD4680BC704700BF00ED00E080B483B0D6
:10152C0000AF0346FB7197F90730002B0BDBFB79FF
:10153C0003F01F02064997F907305B09012000FAF6
:10154C0002F241F8232000BF0C37BD4680BC704727
:10155C0000E100E080B483B000AF03463960FB715A
:10156C0097F90730002B0ADB3B68DAB20C4997F984
:10157C0007301201D2B20B4483F800230AE03B6817
:10158C00DAB20849FB7903F00F03043B1201D2B223
:10159C000B441A7600BF0C37BD4680BC704700BFA9
:1015AC0000E100E000ED00E080B489B000AFF8602D
:1015BC00B9607A60FB6803F00703FB61FB69C3F158
:1015CC000703042B28BF0423BB61FB690433062BE0
:1015DC0002D9FB69033B00E000237B614FF0FF3233
:1015EC00BB6902FA03F3DA43BB681A407B699A4081
:1015FC004FF0FF317B6901FA03F3D9437B680B4051
:10160C00134318462437BD4680BC704780B582B062
:10161C0000AF78607B68013BB3F1807F01D301237D
:10162C000FE00A4A7B68013B53600F214FF0FF30FB
:10163C00FFF790FF054B00229A60044B07221A60BB
:10164C00002318460837BD4680BD00BF10E000E0FF
:10165C0080B582B000AF78607868FFF72DFF00BFCF
:10166C000837BD4680BD80B586B000AF0346B96073
:10167C007A60FB7300237B61FFF742FF78617A6825
:10168C00B9687869FFF790FF024697F90F30114659
:10169C001846FFF75FFF00BF1837BD4680BD80B509
:1016AC0082B000AF0346FB7197F907301846FFF77D
:1016BC0035FF00BF0837BD4680BD80B582B000AF96
:1016CC0078607868FFF7A2FF034618460837BD46D6
:1016DC0080BD000080B48BB000AF7860396000230F
:1016EC007B6200233B6248E101227B6A02FA03F32E
:1016FC00FB613B681B68FA691340BB61BA69FB6903
:10170C009A4240F037813B685B68A34A93425ED0B3
:10171C00A14A934275D8A14A934258D09F4A93420A
:10172C006FD89F4A934252D09D4A934269D89D4AA2
:10173C0093424CD09B4A934263D89B4A934246D0E7
:10174C00994A93425DD8122B2AD8122B59D801A250
:10175C0052F823F0DB170008B5170008C71700086C
:10176C00091800080F1800080F1800080F180008B7
:10177C000F1800080F1800080F1800080F180008A1
:10178C000F1800080F1800080F1800080F18000891
:10179C000F1800080F180008BD170008D117000813
:1017AC00824A934213D02CE03B68DB683B6229E011
:1017BC003B68DB6804333B6224E03B68DB6808333E
:1017CC003B621FE03B68DB680C333B621AE03B6812
:1017DC009B68002B02D104233B6213E03B689B689F
:1017EC00012B05D108233B627B68FA691A6109E079
:1017FC0008233B627B68FA695A6103E000233B6271
:10180C0000E000BFBB69FF2B01D87B6801E07B685F
:10181C0004337B61BB69FF2B02D87B6A9B0002E01F
:10182C007B6A083B9B003B617B691A680F213B6913
:10183C0001FA03F3DB431A40396A3B6901FA03F3FB
:10184C001A437B691A603B685B6803F08053002B7A
:10185C0000F09080564B9B69554A43F0010393610D
:10186C00534B9B6903F00103BB60BB68514A7B6A15
:10187C009B08023352F82330FB607B6A03F00303AE
:10188C009B000F2202FA03F3DB43FA681340FB6060
:10189C007B68494A93420DD07B68484A934207D0F3
:1018AC007B68474A934201D1022304E0032302E000
:1018BC00012300E000237A6A02F0030292009340B5
:1018CC00FA681343FB603B497B6A9B080233FA6856
:1018DC0041F823203B685B6803F48033002B06D06F
:1018EC00384B1A683749BB6913430B6006E0354B1C
:1018FC001A68BB69DB43334913400B603B685B6878
:10190C0003F40033002B06D02E4B5A682D49BB69CB
:10191C0013434B6006E02B4B5A68BB69DB432949E8
:10192C0013404B603B685B6803F48013002B06D0BC
:10193C00244B9A682349BB6913438B6006E0214B07
:10194C009A68BB69DB431F4913408B603B685B683B
:10195C0003F40013002B06D01A4BDA681949BB6943
:10196C001343CB6006E0174BDA68BB69DB431549C0
:10197C001340CB607B6A01337B623B681A687B6ADD
:10198C0022FA03F3002B7FF4AFAE00BF00BF2C375D
:10199C00BD4680BC704700BF000032100000311003
:1019AC000000221000002110000012100000111085
:1019BC00001002400000014000080140000C0140F2
:1019CC00001001400004014080B485B000AF786085
:1019DC000B467B807B689A687B881340002B02D077
:1019EC000123FB7301E00023FB73FB7B18461437C8
:1019FC00BD4680BC704780B483B000AF78600B46A6
:101A0C007B8013467B707B78002B03D07A887B68B5
:101A1C001A6103E07B881A047B681A6100BF0C37DB
:101A2C00BD4680BC704780B485B000AF78600B4673
:101A3C007B807B68DB68FB607A88FB6813401A0448
:101A4C00FB68D9437B880B401A437B681A6100BF43
:101A5C001437BD4680BC704780B586B000AF786047
:101A6C007B68002B01D101236CE27B681B6803F0BF
:101A7C000103002B00F08780924B5B6803F00C0392
:101A8C00042B0CD08F4B5B6803F00C03082B12D18A
:101A9C008C4B5B6803F48033B3F5803F0BD1894BDF
:101AAC001B6803F40033002B6CD07B685B68002B45
:101ABC0068D1012346E27B685B68B3F5803F06D1B1
:101ACC00804B1B687F4A43F4803313602EE07B68A5
:101ADC005B68002B0CD17B4B1B687A4A23F4803358
:101AEC001360784B1B68774A23F4802313601DE046
:101AFC007B685B68B3F5A02F0CD1724B1B68714AE5
:101B0C0043F4802313606F4B1B686E4A43F480339D
:101B1C0013600BE06B4B1B686A4A23F48033136031
:101B2C00684B1B68674A23F4802313607B685B68EF
:101B3C00002B13D0FFF7B6FC386108E0FFF7B2FCBE
:101B4C0002463B69D31A642B01D90323FAE15D4B9E
:101B5C001B6803F40033002BF0D014E0FFF7A2FC59
:101B6C00386108E0FFF79EFC02463B69D31A642BF0
:101B7C0001D90323E6E1534B1B6803F40033002B1C
:101B8C00F0D100E000BF7B681B6803F00203002B60
:101B9C0063D04C4B5B6803F00C03002B0BD0494B10
:101BAC005B6803F00C03082B1CD1464B5B6803F4F9
:101BBC008033002B16D1434B1B6803F00203002B20
:101BCC0005D07B681B69012B01D00123BAE13D4B89
:101BDC001B6823F0F8027B685B69DB00394913430F
:101BEC000B603AE07B681B69002B20D0364B01223E
:101BFC001A60FFF757FC386108E0FFF753FC024608
:101C0C003B69D31A022B01D903239BE12D4B1B6893
:101C1C0003F00203002BF0D02A4B1B6823F0F802D0
:101C2C007B685B69DB00274913430B6015E0264B8F
:101C3C0000221A60FFF736FC386108E0FFF732FC2F
:101C4C0002463B69D31A022B01D903237AE11D4BBF
:101C5C001B6803F00203002BF0D17B681B6803F0B8
:101C6C000803002B3AD07B689B69002B19D0174BCB
:101C7C0001221A60FFF716FC386108E0FFF712FC2E
:101C8C0002463B69D31A022B01D903235AE10D4BAF
:101C9C005B6A03F00203002BF0D0012000F0A6FADF
:101CAC001CE00A4B00221A60FFF7FCFB38610FE0C6
:101CBC00FFF7F8FB02463B69D31A022B08D9032322
:101CCC0040E100BF0010024000004242800442424A
:101CDC009E4B5B6A03F00203002BE9D17B681B6807
:101CEC0003F00403002B00F0A6800023FB75974B38
:101CFC00DB6903F08053002B0DD1944BDB69934AC5
:101D0C0043F08053D361914BDB6903F08053BB608C
:101D1C00BB680123FB758E4B1B6803F48073002B8F
:101D2C0018D18B4B1B688A4A43F480731360FFF7FE
:101D3C00B9FB386108E0FFF7B5FB02463B69D31AE3
:101D4C00642B01D90323FDE0814B1B6803F48073E2
:101D5C00002BF0D07B68DB68012B06D17B4B1B6A18
:101D6C007A4A43F0010313622DE07B68DB68002B99
:101D7C000CD1764B1B6A754A23F001031362734B2B
:101D8C001B6A724A23F0040313621CE07B68DB6855
:101D9C00052B0CD16D4B1B6A6C4A43F00403136288
:101DAC006A4B1B6A694A43F0010313620BE0674BF1
:101DBC001B6A664A23F001031362644B1B6A634A75
:101DCC0023F0040313627B68DB68002B15D0FFF74C
:101DDC0069FB38610AE0FFF765FB02463B69D31AE1
:101DEC0041F28832934201D90323ABE0574B1B6A73
:101DFC0003F00203002BEED014E0FFF753FB386125
:101E0C000AE0FFF74FFB02463B69D31A41F28832D6
:101E1C00934201D9032395E04C4B1B6A03F0020358
:101E2C00002BEED1FB7D012B05D1484BDB69474ADA
:101E3C0023F08053D3617B68DB69002B00F0818039
:101E4C00424B5B6803F00C03082B61D07B68DB69A9
:101E5C00022B46D13F4B00221A60FFF723FB38615F
:101E6C0008E0FFF71FFB02463B69D31A022B01D98E
:101E7C00032367E0354B1B6803F00073002BF0D194
:101E8C007B681B6AB3F5803F08D1304B5B6823F449
:101E9C0000327B689B682D4913434B602B4B5B686E
:101EAC0023F474127B68196A7B685B6A0B432749BD
:101EBC0013434B60274B01221A60FFF7F3FA38618A
:101ECC0008E0FFF7EFFA02463B69D31A022B01D95F
:101EDC00032337E01D4B1B6803F00073002BF0D07D
:101EEC002FE01C4B00221A60FFF7DCFA386108E087
:101EFC00FFF7D8FA02463B69D31A022B01D9032308
:101F0C0020E0124B1B6803F00073002BF0D118E09B
:101F1C007B68DB69012B01D1012313E00B4B5B6860
:101F2C00FB60FB6803F480327B681B6A9A4206D123
:101F3C00FB6803F470127B685B6A9A4201D0012340
:101F4C0000E0002318461837BD4680BD0010024043
:101F5C00007000406000424280B584B000AF7860F1
:101F6C0039607B68002B01D10123D0E06A4B1B68E0
:101F7C0003F007033A689A4210D9674B1B6823F0A9
:101F8C00070265493B6813430B60634B1B6803F006
:101F9C0007033A689A4201D00123B8E07B681B68BA
:101FAC0003F00203002B20D07B681B6803F00403B2
:101FBC00002B05D0594B5B68584A43F4E0635360DF
:101FCC007B681B6803F00803002B05D0534B5B6840
:101FDC00524A43F460535360504B5B6823F0F00259
:101FEC007B689B684D4913434B607B681B6803F00F
:101FFC000103002B40D07B685B68012B07D1474B5A
:10200C001B6803F40033002B15D101237FE07B68A0
:10201C005B68022B07D1414B1B6803F00073002B4C
:10202C0009D1012373E03D4B1B6803F00203002B25
:10203C0001D101236BE0394B5B6823F003027B6811
:10204C005B68364913434B60FFF72CFAF8600AE0E3
:10205C00FFF728FA0246FB68D31A41F28832934202
:10206C0001D9032353E02D4B5B6803F00C027B6812
:10207C005B689B009A42EBD1274B1B6803F007036C
:10208C003A689A4210D2244B1B6823F0070222496B
:10209C003B6813430B60204B1B6803F007033A6843
:1020AC009A4201D0012332E07B681B6803F00403E1
:1020BC00002B08D0194B5B6823F4E0627B68DB686B
:1020CC00164913434B607B681B6803F00803002B15
:1020DC0009D0124B5B6823F460527B681B69DB00F0
:1020EC000E4913434B6000F021F802460B4B5B6822
:1020FC001B0903F00F030A49CB5C22FA03F3094ACC
:10210C001360094B1B681846FFF78AF90023184621
:10211C001037BD4680BD00BF0020024000100240B9
:10212C007C2A00085C0000206000002090B48AB07B
:10213C0000AF2A4B3C1D0FCB84E80F0040F201236B
:10214C003B800023FB610023BB6100237B620023E7
:10215C007B6100233B62224B5B68FB61FB6903F0F4
:10216C000C03042B02D0082B03D02DE01D4B3B623B
:10217C002DE0FB699B0C03F00F0307F128021344BD
:10218C0013F8243C7B61FB6903F48033002B13D0E0
:10219C00134B5B685B0C03F0010307F1280213443B
:1021AC0013F8283CBB617B690E4A02FB03F2BB6946
:1021BC00B2FBF3F37B6204E07B690B4A02FB03F393
:1021CC007B627B6A3B6202E0064B3B6200BF3B6A70
:1021DC0018462837BD4690BC704700BF6C2A0008D3
:1021EC000010024000127A0000093D0080B485B056
:1021FC0000AF78600A4B1B680A4AA2FB03235B0AF8
:10220C007A6802FB03F3FB6000BFFB685A1EFA609E
:10221C00002BF9D100BF00BF1437BD4680BC7047FE
:10222C005C000020D34D621080B582B000AF7860A6
:10223C007B68002B01D1012341E07B6893F83D3092
:10224C00DBB2002B06D17B68002283F83C20786837
:10225C00FFF74EF87B68022283F83D207B681A68F2
:10226C007B6804331946104600F06AFA7B68012239
:10227C0083F846207B68012283F83E207B6801228C
:10228C0083F83F207B68012283F840207B68012281
:10229C0083F841207B68012283F842207B6801226D
:1022AC0083F843207B68012283F844207B68012259
:1022BC0083F845207B68012283F83D2000231846D3
:1022CC000837BD4680BD000080B485B000AF786093
:1022DC007B6893F83D30DBB2012B01D0012335E054
:1022EC007B68022283F83D207B681B68DA687B6878
:1022FC001B6842F00102DA607B681B68164A934245
:10230C0009D07B681B68B3F1804F04D07B681B68D5
:10231C00124A934211D17B681B689B6803F0070338
:10232C00FB60FB68062B10D07B681B681A687B6807
:10233C001B6842F001021A6007E07B681B681A6890
:10234C007B681B6842F001021A60002318461437A0
:10235C00BD4680BC704700BF002C0140000400400B
:10236C0080B582B000AF78607B681B681B6903F096
:10237C000203022B22D17B681B68DB6803F002038B
:10238C00022B1BD17B681B686FF002021A617B6801
:10239C0001221A777B681B689B6903F00303002BEF
:1023AC0003D0786800F0B1F905E0786800F0A4F982
:1023BC00786800F0B3F97B6800221A777B681B6899
:1023CC001B6903F00403042B22D17B681B68DB68B8
:1023DC0003F00403042B1BD17B681B686FF0040211
:1023EC001A617B6802221A777B681B689B6903F46D
:1023FC004073002B03D0786800F087F905E078680B
:10240C0000F07AF9786800F089F97B6800221A7775
:10241C007B681B681B6903F00803082B22D17B68BF
:10242C001B68DB6803F00803082B1BD17B681B6857
:10243C006FF008021A617B6804221A777B681B68AC
:10244C00DB6903F00303002B03D0786800F05DF91F
:10245C0005E0786800F050F9786800F05FF97B6867
:10246C0000221A777B681B681B6903F01003102B82
:10247C0022D17B681B68DB6803F01003102B1BD187
:10248C007B681B686FF010021A617B6808221A7750
:10249C007B681B68DB6903F44073002B03D07868FE
:1024AC0000F033F905E0786800F026F9786800F060
:1024BC0035F97B6800221A777B681B681B6903F06F
:1024CC000103012B0ED17B681B68DB6803F0010351
:1024DC00012B07D17B681B686FF001021A617868C9
:1024EC00FEF790FC7B681B681B6903F08003802B54
:1024FC000ED17B681B68DB6803F08003802B07D14F
:10250C007B681B686FF080021A61786800F067FACC
:10251C007B681B681B6903F04003402B0ED17B6862
:10252C001B68DB6803F04003402B07D17B681B68FA
:10253C006FF040021A61786800F0F9F87B681B684C
:10254C001B6903F02003202B0ED17B681B68DB6812
:10255C0003F02003202B07D17B681B686FF020024F
:10256C001A61786800F032FA00BF0837BD4680BDAA
:10257C0080B584B000AF786039607B6893F83C30EC
:10258C00012B01D10223B3E07B68012283F83C20AC
:10259C007B68022283F83D207B681B689B68FB608C
:1025AC00FB6823F07703FB60FB6823F47F43FB603D
:1025BC007B681B68FA689A603B681B68B3F5005F20
:1025CC003ED0B3F5005F00F28780B3F5805F00F07A
:1025DC008580B3F5805F7FD8702B1AD0702B7BD899
:1025EC00602B50D0602B77D8502B3CD0502B73D80D
:1025FC00402B58D0402B6FD8302B64D0302B6BD85D
:10260C00202B60D0202B67D8002B5CD0102B5AD0FD
:10261C0062E07B6818683B6899683B685A683B685D
:10262C00DB6800F05CF97B681B689B68FB60FB68EF
:10263C0043F07703FB607B681B68FA689A604EE096
:10264C007B6818683B6899683B685A683B68DB682C
:10265C0000F045F97B681B689A687B681B6842F43C
:10266C0080429A603BE07B6818683B6859683B681D
:10267C00DB681A4600F0BCF87B681B6850211846D2
:10268C0000F013F92BE07B6818683B6859683B68CD
:10269C00DB681A4600F0DAF87B681B686021184684
:1026AC0000F003F91BE07B6818683B6859683B68CD
:1026BC00DB681A4600F09CF87B681B6840211846C2
:1026CC0000F0F3F80BE07B681A683B681B6819464E
:1026DC00104600F0EAF802E000BF00E000BF7B68A3
:1026EC00012283F83D207B68002283F83C200023E4
:1026FC0018461037BD4680BD80B483B000AF7860FB
:10270C0000BF0C37BD4680BC704780B483B000AFAF
:10271C00786000BF0C37BD4680BC704780B483B076
:10272C0000AF786000BF0C37BD4680BC704780B4EA
:10273C0083B000AF786000BF0C37BD4680BC7047DB
:10274C0080B485B000AF786039607B681B68FB6033
:10275C007B68254A934207D07B68B3F1804F03D046
:10276C007B68224A934208D1FB6823F07003FB601C
:10277C003B685B68FA681343FB607B681A4A9342B8
:10278C0007D07B68B3F1804F03D07B68174A934224
:10279C0008D1FB6823F44073FB603B68DB68FA6884
:1027AC001343FB60FB6823F080023B685B691343B7
:1027BC00FB607B68FA681A603B689A687B68DA622F
:1027CC003B681A687B689A627B68074A934203D11C
:1027DC003B681A697B681A637B6801225A6100BFE7
:1027EC001437BD4680BC7047002C014000040040EB
:1027FC0080B487B000AFF860B9607A60FB681B6A80
:10280C007B61FB681B6A23F00102FB681A62FB68A0
:10281C009B693B613B6923F0F0033B617B681B01C7
:10282C003A6913433B617B6923F00A037B617A6944
:10283C00BB6813437B61FB683A699A61FB687A69F0
:10284C001A6200BF1C37BD4680BC704780B487B08D
:10285C0000AFF860B9607A60FB681B6A23F0100265
:10286C00FB681A62FB689B697B61FB681B6A3B61B6
:10287C007B6923F470437B617B681B037A69134388
:10288C007B613B6923F0A0033B61BB681B013A6988
:10289C0013433B61FB687A699A61FB683A691A6277
:1028AC0000BF1C37BD4680BC704780B485B000AFFC
:1028BC00786039607B689B68FB60FB6823F0700371
:1028CC00FB603A68FB68134343F00703FB607B68CB
:1028DC00FA689A6000BF1437BD4680BC704780B45C
:1028EC0087B000AFF860B9607A603B60FB689B68AA
:1028FC007B617B6923F47F437B613B681A027B68B5
:10290C001A43BB6813437A6913437B61FB687A698A
:10291C009A6000BF1C37BD4680BC704780B485B040
:10292C0000AF786039607B6893F83C30012B01D1A3
:10293C00022341E07B68012283F83C207B68022261
:10294C0083F83D207B681B685B68FB607B681B68B9
:10295C009B68BB60FB6823F07003FB603B681B68E3
:10296C00FA681343FB607B681B68FA685A607B68E3
:10297C001B68144A934209D07B681B68B3F1804FE3
:10298C0004D07B681B68104A93420CD1BB6823F0BF
:10299C008003BB603B685B68BA681343BB607B68B1
:1029AC001B68BA689A607B68012283F83D207B68BB
:1029BC00002283F83C20002318461437BD4680BC07
:1029CC00704700BF002C01400004004080B483B06D
:1029DC0000AF786000BF0C37BD4680BC704780B438
:1029EC0083B000AF786000BF0C37BD4680BC704729
:1029FC0070B500260C4D0D4C641BA410A64209D1D9
:102A0C0000F022F800260A4D0A4C641BA410A642C2
:102A1C0005D170BD55F8043B98470136EEE755F8E3
:102A2C00043B98470136F2E78C2A00088C2A0008F0
:102A3C008C2A0008902A000803460244934200D1D5
:102A4C00704703F8011BF9E7F8B500BFF8BC08BCE8
:102A5C009E467047F8B500BFF8BC08BC9E46704750
:102A6C0002030405060708090A0B0C0D0E0F1010C3
:102A7C000000000000000000010203040607080922
:042A8C00310100080C
:042A90000D0100082C
:102A9400010000000100000001000000010000002E
:102AA400010000000100000001000000010000001E
:102AB400010000000100000001000000010000000E
:102AC400C8000000C8000000C800000000000000AA
:102AD40000000000050000000000000003000000EA
:102AE4000500000002000000030000000024F400C0
:082AF4001000000001000000C9
:04000005080013B527
:00000001FF
