:020000040800F2
:1000000000280020ED0D00087D0D0008830D00087C
:10001000890D00088F0D0008950D000800000000F4
:100020000000000000000000000000009B0D000820
:10003000A70D000800000000B30D0008BF0D000868
:10004000350E0008350E0008350E0008350E000884
:10005000350E0008350E0008350E0008350E000874
:10006000350E0008350E0008350E0008350E000864
:10007000350E0008350E0008350E0008350E000854
:10008000350E0008350E0008350E0008350E000844
:10009000350E0008350E0008350E0008350E000834
:1000A000350E0008350E0008350E0008350E000824
:1000B000CD0D0008350E000800000000350E0008C8
:1000C000350E00080000000000000000350E00089A
:1000D00000000000350E0008350E0008000000008A
:1000E000350E0008350E0008350E0008000000002F
:1000F0000000000000000000000000000000000000
:0C01000000000000000000005FF808F1A3
:10010C0010B5054C237833B9044B13B10448AFF345
:10011C0000800123237010BD40000020000000006F
:10012C008C24000808B5034B1BB103490348AFF3FB
:10013C00008008BD00000000440000208C24000852
:10014C0080B400AF034B01221A6000BFBD4680BCD7
:10015C00704700BF5C00002080B500AF1E4B1B68D1
:10016C001E4A13601E4B1B681B4A136004211D485A
:10017C0001F046F903461A46194B1A60174B1A68D8
:10018C00154B1B689A4225D1134B1A68144B1B68EC
:10019C009A421FD1144B1A68114B1B689A420DD00E
:1001AC000F4B1B68104A13600D4B1B68002B11D1B1
:1001BC00FFF7C6FF0D4BC8221A600BE00B4B1B68F8
:1001CC00013B0A4A1360094B1B68002B02D1064BFA
:1001DC0001221A6000BF80BD040000200000002036
:1001EC0008000020000801400C0000201000002036
:1001FC0080B500AF01220121114801F018F901224C
:10020C0002210F4801F013F9012204210C4801F0DE
:10021C000EF9012208210A4801F009F901221021E6
:10022C00074801F004F901222021054801F0FFF8EC
:10023C0001224021024801F0FAF800BF80BD00BF46
:10024C00000C014080B582B000AF78607B68042B55
:10025C0000F29F8001A252F823F000BF7D0200083B
:10026C00B7020008F10200082B0300086503000820
:10027C0000224021494801F0DAF801228021474848
:10028C0001F0D5F801224FF48071444801F0CFF809
:10029C0001224FF40071414801F0C9F801224FF4DA
:1002AC0080613E4801F0C3F874E0012240213B48D4
:1002BC0001F0BDF800228021384801F0B8F8012285
:1002CC004FF48071354801F0B2F801224FF40071FF
:1002DC00324801F0ACF801224FF480612F4801F054
:1002EC00A6F857E0012240212C4801F0A0F8012289
:1002FC0080212A4801F09BF800224FF48071274896
:10030C0001F095F801224FF40071244801F08FF8A8
:10031C0001224FF48061214801F089F83AE0012272
:10032C0040211E4801F083F8012280211B4801F076
:10033C007EF801224FF48071184801F078F8002201
:10034C004FF40071154801F072F801224FF48061EE
:10035C00124801F06CF81DE0012240210F4801F019
:10036C0066F8012280210D4801F061F801224FF45A
:10037C0080710A4801F05BF801224FF400710748C4
:10038C0001F055F800224FF48061044801F04FF859
:10039C0000E000BF00BF0837BD4680BD000801402B
:1003AC0080B582B000AF78607B68042B43D801A283
:1003BC0052F823F0D5030008EB03000801040008F1
:1003CC00170400082D0400080020FFF73BFF1C4A0F
:1003DC007B6852F82330184600F034F82CE00120EA
:1003EC00FFF730FF164A7B6852F82330184600F0AE
:1003FC0029F821E00220FFF725FF114A7B6852F80B
:10040C002330184600F01EF816E00320FFF71AFF01
:10041C000B4A7B6852F82330184600F013F80BE0B7
:10042C000420FFF70FFF064A7B6852F8233018466A
:10043C0000F008F800E000BF00BF0837BD4680BDE3
:10044C001400002080B582B000AF7860FFF7D0FEBA
:10045C007B68092B00F2178101A252F823F000BF30
:10046C0095040008D3040008E90400081D050008E1
:10047C00510500087B050008AF050008ED050008D4
:10048C000D0600085506000800220121804800F0E6
:10049C00CEFF002202217E4800F0C9FF0022042179
:1004AC007B4800F0C4FF00220821794800F0BFFF10
:1004BC0000221021764800F0BAFF00222021744857
:1004CC0000F0B5FFE0E000220221714800F0AFFF20
:1004DC00002204216E4800F0AAFFD5E00022012181
:1004EC006B4800F0A4FF00220221694800F09FFF36
:1004FC0000220821664800F09AFF0022102164486F
:10050C0000F095FF00224021614800F090FFBBE015
:10051C00002201215E4800F08AFF002202215C4883
:10052C0000F085FF00220421594800F080FF0022D2
:10053C000821574800F07BFF00224021544800F06E
:10054C0076FFA1E000220221514800F070FF00224A
:10055C0004214F4800F06BFF002220214C4800F092
:10056C0066FF002240214A4800F061FF8CE0002227
:10057C000121474800F05BFF00220421444800F0B1
:10058C0056FF00220821424800F051FF0022202192
:10059C003F4800F04CFF002240213D4800F047FF4F
:1005AC0072E0002201213A4800F041FF00220421B0
:1005BC00374800F03CFF00220821354800F037FF97
:1005CC0000221021324800F032FF00222021304856
:1005DC0000F02DFF002240212D4800F028FF53E0B1
:1005EC00002201212A4800F022FF00220221284883
:1005FC0000F01DFF00220421254800F018FF43E005
:10060C0000220121224800F012FF00220221204882
:10061C0000F00DFF002204211D4800F008FF00220D
:10062C0008211B4800F003FF00221021184800F09D
:10063C00FEFE00222021164800F0F9FE0022402187
:10064C00134800F0F4FE1FE000220121104800F0D6
:10065C00EEFE002202210E4800F0E9FE00220421E9
:10066C000B4800F0E4FE00220821094800F0DFFEF0
:10067C0000222021064800F0DAFE00224021044826
:10068C0000F0D5FE00E000BF00BF0837BD4680BDBE
:10069C00000C014080B500AF3E4B1B68032B70D89B
:1006AC0001A252F823F000BFC5060008E1060008BD
:1006BC001B0700085507000801224FF480613648DB
:1006CC0000F0B5FE354B1B68354A1360314B0122E7
:1006DC001A605DE001224FF480612F4800F0A7FE04
:1006EC0000224FF400612C4800F0A1FE2C4B1B683B
:1006FC00013B2B4A13602A4B1B68002B43D1294B1F
:10070C001B68274A1360234B03221A603BE001222B
:10071C004FF40061204800F08AFE00224FF4805113
:10072C001D4800F084FE1E4B1B68013B1C4A1360E5
:10073C001B4B1B68002B28D1184B1B68184A1360E5
:10074C00144B01221A6020E001224FF48051124810
:10075C0000F06DFE00224FF480610F4800F067FE40
:10076C000F4B1B68013B0E4A13600D4B1B68002B93
:10077C000DD10D4B1B680A4A1360064B02221A60FE
:10078C0005E000BF04E000BF02E000BF00E000BFD6
:10079C0000BF80BD64000020000C01402800002038
:1007AC006C000020300000202C00002080B500AF31
:1007BC0000F03CFB00F058F800F092F800F0DCF888
:1007CC00224801F09DFA642000F0D6F9642000F074
:1007DC00E7F9642000F0F8F9142000F009FA1C4B3A
:1007EC001B68012B04D1FFF755FF642000F0C4F9FE
:1007FC00184B1B68012B04D100F032F9642000F077
:10080C00CFF9154B1B68012B13D1FFF7F1FC134BE0
:10081C001B68042B02DD114B00221A600F4B1B6866
:10082C005A1C0E490A601846FFF7BAFD142000F056
:10083C00DFF90B4B1B68012BD1D12021094800F0AB
:10084C000EFE642000F0C0F9C9E700BF9400002040
:10085C007800002080000020900000206000002024
:10086C00880000200008014080B590B000AF07F16F
:10087C00180328220021184601F0FAFD3B1D002226
:10088C001A605A609A60DA601A610223BB61012314
:10089C00BB621023FB6200237B6307F1180318462D
:1008AC0000F0F6FD0346002B01D000F0D3F80F2327
:1008BC007B600023BB600023FB6000233B610023B3
:1008CC007B613B1D0021184601F062F80346002BAA
:1008DC0001D000F0BFF800BF4037BD4680BD00001E
:1008EC0080B586B000AF07F1080300221A605A6089
:1008FC009A60DA603B4600221A605A601D4B4FF03A
:10090C0080421A601B4B41F63F725A60194B002211
:10091C009A60184B0922DA60164B00221A61154BAB
:10092C0000229A61134801F09BF90346002B01D079
:10093C0000F090F84FF48053BB6007F108031946A0
:10094C000C4801F031FB0346002B01D000F082F87B
:10095C0000233B6000237B603B461946054801F0B1
:10096C00F9FC0346002B01D000F074F800BF1837D7
:10097C00BD4680BD9400002080B586B000AF07F165
:10098C00080300221A605A609A60DA60284B9B694F
:10099C00274A43F004039361254B9B6903F004033E
:1009AC007B607B68224B9B69214A43F0080393616F
:1009BC001F4B9B6903F008033B603B6800224FF41C
:1009CC00FC611C4800F033FD00224FF67F411A48B1
:1009DC0000F02DFD1C23BB600023FB6001233B6159
:1009EC0007F108031946134800F090FB4FF4FC6321
:1009FC00BB600123FB6000233B6102237B6107F199
:100A0C00080319460B4800F081FB4FF67F43BB608F
:100A1C000123FB6000233B6102237B6107F1080388
:100A2C001946054800F072FB00BF1837BD4680BD63
:100A3C000010024000080140000C014080B582B05B
:100A4C0000AF786000F0E8F8FFF786FB00BF0837CE
:100A5C00BD4680BD80B400AF72B600BFFEE700009B
:100A6C0080B500AF3E4B1B68032B70D801A252F827
:100A7C0023F000BF910A0008AD0A0008E70A00083D
:100A8C00210B000801224FF40041364800F0CFFC46
:100A9C00354B1B68354A1360314B03221A605DE0FD
:100AAC0001224FF400512F4800F0C1FC00224FF4FA
:100ABC0080412C4800F0BBFC2C4B1B68013B2B4AA3
:100ACC0013602A4B1B68002B43D1274B1B68274A0A
:100ADC001360234B03221A603BE001224FF4804148
:100AEC00204800F0A4FC00224FF400411D4800F007
:100AFC009EFC1E4B1B68013B1C4A13601B4B1B6866
:100B0C00002B28D11A4B1B68184A1360144B012276
:100B1C001A6020E001224FF40041124800F087FCDB
:100B2C0000224FF400510F4800F081FC0F4B1B6862
:100B3C00013B0E4A13600D4B1B68002B0DD10D4B66
:100B4C001B680A4A1360064B02221A6005E000BFBC
:100B5C0004E000BF02E000BF00E000BF00BF80BDAA
:100B6C0068000020000C01403000002070000020C4
:100B7C00280000202C00002080B483B000AF7860E7
:100B8C00054A7B681360054B00221A6000BF0C37C6
:100B9C00BD4680BC704700BF740000207800002068
:100BAC0080B483B000AF7860054A7B681360054B56
:100BBC0000221A6000BF0C37BD4680BC704700BFD6
:100BCC007C0000208000002080B483B000AF7860EF
:100BDC00054A7B681360054B00221A6000BF0C3776
:100BEC00BD4680BC704700BF8400002088000020F8
:100BFC0080B483B000AF7860054A7B681360054B06
:100C0C0000221A6000BF0C37BD4680BC704700BF85
:100C1C008C0000209000002080B400AF214B1B689A
:100C2C00002B0BDD1F4B1B68013B1E4A13601D4B39
:100C3C001B68002B02D11C4B01221A601B4B1B683A
:100C4C00002B0BDD194B1B68013B184A1360174B2B
:100C5C001B68002B02D1164B01221A60154B1B6826
:100C6C00002B0BDD134B1B68013B124A1360114B1D
:100C7C001B68002B02D1104B01221A600F4B1B6812
:100C8C00002B0BDD0D4B1B68013B0C4A13600B4B0F
:100C9C001B68002B02D10A4B01221A6000BFBD4613
:100CAC0080BC704774000020780000207C0000207D
:100CBC008000002084000020880000208C00002090
:100CCC009000002080B485B000AF154B9B69144A8E
:100CDC0043F001039361124B9B6903F00103BB606A
:100CEC00BB680F4BDB690E4A43F08053D3610C4B4E
:100CFC00DB6903F080537B607B680A4B5B68FB60AD
:100D0C00FB6823F0E063FB60FB6843F08063FB60EF
:100D1C00044AFB68536000BF1437BD4680BC704763
:100D2C00001002400000014080B584B000AF786034
:100D3C007B681B68B3F1804F13D10C4BDB690B4AFA
:100D4C0043F00103D361094BDB6903F00103FB6042
:100D5C00FB68002200211C2000F0A1F91C2000F0EF
:100D6C00BAF900BF1037BD4680BD00BF001002406D
:100D7C0080B400AFFEE780B400AFFEE780B400AFF4
:100D8C00FEE780B400AFFEE780B400AFFEE780B4AE
:100D9C0000AF00BFBD4680BC704780B400AF00BF41
:100DAC00BD4680BC704780B400AF00BFBD4680BC60
:100DBC00704780B500AF00F07FF800BF80BD000029
:100DCC0080B500AF024800F0E7FF00BF80BD00BF58
:100DDC009400002080B400AF00BFBD4680BC7047BB
:100DEC000C480D490D4A002302E0D458C45004337A
:100DFC00C4188C42F9D30A4A0A4C002301E0136050
:100E0C000432A242FBD3FFF7E5FF01F00DFBFFF725
:100E1C00CDFC70470000002040000020CC240008CE
:100E2C0040000020E0000020FEE7000080B500AF8D
:100E3C00084B1B68074A43F010031360032000F0B3
:100E4C0023F90F2000F008F8FFF73CFF00231846A9
:100E5C0080BD00BF0020024080B582B000AF78603A
:100E6C00124B1A68124B1B7819464FF47A73B3FB6A
:100E7C00F1F3B2FBF3F3184600F03BF90346002BF9
:100E8C0001D001230EE07B680F2B0AD80022796871
:100E9C004FF0FF3000F003F9064A7B681360002323
:100EAC0000E0012318460837BD4680BD3400002001
:100EBC003C0000203800002080B400AF054B1B78AC
:100ECC001A46054B1B681344034A136000BFBD460A
:100EDC0080BC70473C000020DC00002080B400AFD8
:100EEC00024B1B681846BD4680BC7047DC000020D6
:100EFC0080B485B000AF78607B6803F00703FB60BB
:100F0C000C4BDB68BB60BA684FF6FF031340BB6049
:100F1C00FB681A02BB68134343F0BF6343F400330E
:100F2C00BB60044ABB68D36000BF1437BD4680BCAD
:100F3C00704700BF00ED00E080B400AF044BDB68ED
:100F4C001B0A03F007031846BD4680BC704700BF60
:100F5C0000ED00E080B483B000AF0346FB7197F95D
:100F6C000730002B0BDBFB7903F01F02064997F9C6
:100F7C0007305B09012000FA02F241F8232000BF80
:100F8C000C37BD4680BC704700E100E080B483B0F4
:100F9C0000AF03463960FB7197F90730002B0ADB71
:100FAC003B68DAB20C4997F907301201D2B20B4404
:100FBC0083F800230AE03B68DAB20849FB7903F0B6
:100FCC000F03043B1201D2B20B441A7600BF0C374C
:100FDC00BD4680BC704700BF00E100E000ED00E0C2
:100FEC0080B489B000AFF860B9607A60FB6803F038
:100FFC000703FB61FB69C3F10703042B28BF042320
:10100C00BB61FB690433062B02D9FB69033B00E08F
:10101C0000237B614FF0FF32BB6902FA03F3DA4322
:10102C00BB681A407B699A404FF0FF317B6901FA2B
:10103C0003F3D9437B680B40134318462437BD4652
:10104C0080BC704780B582B000AF78607B68013B94
:10105C00B3F1807F01D301230FE00A4A7B68013B87
:10106C0053600F214FF0FF30FFF790FF054B00222C
:10107C009A60044B07221A60002318460837BD46B5
:10108C0080BD00BF10E000E080B582B000AF78609A
:10109C007868FFF72DFF00BF0837BD4680BD80B5CF
:1010AC0086B000AF0346B9607A60FB7300237B61A6
:1010BC00FFF742FF78617A68B9687869FFF790FFAB
:1010CC00024697F90F3011461846FFF75FFF00BF35
:1010DC001837BD4680BD80B582B000AF0346FB71AA
:1010EC0097F907301846FFF735FF00BF0837BD46A4
:1010FC0080BD80B582B000AF78607868FFF7A2FF42
:10110C00034618460837BD4680BD000080B48BB03E
:10111C0000AF7860396000237B6200233B6248E1BA
:10112C0001227B6A02FA03F3FB613B681B68FA69D4
:10113C001340BB61BA69FB699A4240F037813B6846
:10114C005B68A34A93425ED0A14A934275D8A14AE8
:10115C00934258D09F4A93426FD89F4A934252D0A1
:10116C009D4A934269D89D4A93424CD09B4A9342E4
:10117C0063D89B4A934246D0994A93425DD8122B2E
:10118C002AD8122B59D801A252F823F013120008B6
:10119C00ED110008FF110008411200084712000869
:1011AC0047120008471200084712000847120008AF
:1011BC00471200084712000847120008471200089F
:1011CC00471200084712000847120008471200088F
:1011DC00F511000809120008824A934213D02CE042
:1011EC003B68DB683B6229E03B68DB6804333B62AD
:1011FC0024E03B68DB6808333B621FE03B68DB683C
:10120C000C333B621AE03B689B68002B02D1042331
:10121C003B6213E03B689B68012B05D108233B62C2
:10122C007B68FA691A6109E008233B627B68FA69FA
:10123C005A6103E000233B6200E000BFBB69FF2B57
:10124C0001D87B6801E07B6804337B61BB69FF2BB1
:10125C0002D87B6A9B0002E07B6A083B9B003B61E7
:10126C007B691A680F213B6901FA03F3DB431A40CF
:10127C00396A3B6901FA03F31A437B691A603B68CC
:10128C005B6803F08053002B00F09080564B9B69F9
:10129C00554A43F001039361534B9B6903F00103DF
:1012AC00BB60BB68514A7B6A9B08023352F82330FF
:1012BC00FB607B6A03F003039B000F2202FA03F32B
:1012CC00DB43FA681340FB607B68494A93420DD0BC
:1012DC007B68484A934207D07B68474A934201D1C6
:1012EC00022304E0032302E0012300E000237A6AD6
:1012FC0002F0030292009340FA681343FB603B49EF
:10130C007B6A9B080233FA6841F823203B685B68D0
:10131C0003F48033002B06D0384B1A683749BB696D
:10132C0013430B6006E0354B1A68BB69DB4333494A
:10133C0013400B603B685B6803F40033002B06D052
:10134C002E4B5A682D49BB6913434B6006E02B4B5F
:10135C005A68BB69DB43294913404B603B685B68A7
:10136C0003F48013002B06D0244B9A682349BB69E5
:10137C0013438B6006E0214B9A68BB69DB431F4922
:10138C0013408B603B685B6803F40013002B06D0A2
:10139C001A4BDA681949BB691343CB6006E0174B4B
:1013AC00DA68BB69DB4315491340CB607B6A0133B8
:1013BC007B623B681A687B6A22FA03F3002B7FF48A
:1013CC00AFAE00BF00BF2C37BD4680BC704700BF1E
:1013DC00000032100000311000002210000021101B
:1013EC00000012100000111000100240000001401B
:1013FC0000080140000C01400010014000040140B5
:10140C0080B485B000AF78600B467B807B689A68AF
:10141C007B881340002B02D00123FB7301E00023D7
:10142C00FB73FB7B18461437BD4680BC704780B4F9
:10143C0083B000AF78600B467B8013467B707B7863
:10144C00002B03D07A887B681A6103E07B881A042E
:10145C007B681A6100BF0C37BD4680BC704780B4F6
:10146C0085B000AF78600B467B807B68DB68FB60E7
:10147C007A88FB6813401A04FB68D9437B880B40BD
:10148C001A437B681A6100BF1437BD4680BC704795
:10149C0080B586B000AF78607B68002B01D101234A
:1014AC006CE27B681B6803F00103002B00F0878063
:1014BC00924B5B6803F00C03042B0CD08F4B5B68D6
:1014CC0003F00C03082B12D18C4B5B6803F48033B4
:1014DC00B3F5803F0BD1894B1B6803F40033002B11
:1014EC006CD07B685B68002B68D1012346E27B687B
:1014FC005B68B3F5803F06D1804B1B687F4A43F491
:10150C00803313602EE07B685B68002B0CD17B4B27
:10151C001B687A4A23F480331360784B1B68774A34
:10152C0023F4802313601DE07B685B68B3F5A02F68
:10153C000CD1724B1B68714A43F4802313606F4BC0
:10154C001B686E4A43F4803313600BE06B4B1B68D3
:10155C006A4A23F480331360684B1B68674A23F490
:10156C00802313607B685B68002B13D0FFF7B6FCFD
:10157C00386108E0FFF7B2FC02463B69D31A642BD2
:10158C0001D90323FAE15D4B1B6803F40033002BF4
:10159C00F0D014E0FFF7A2FC386108E0FFF79EFCE6
:1015AC0002463B69D31A642B01D90323E6E1534B62
:1015BC001B6803F40033002BF0D100E000BF7B6804
:1015CC001B6803F00203002B63D04C4B5B6803F0E9
:1015DC000C03002B0BD0494B5B6803F00C03082B5E
:1015EC001CD1464B5B6803F48033002B16D1434B64
:1015FC001B6803F00203002B05D07B681B69012BD1
:10160C0001D00123BAE13D4B1B6823F0F8027B6843
:10161C005B69DB00394913430B603AE07B681B695B
:10162C00002B20D0364B01221A60FFF757FC386193
:10163C0008E0FFF753FC02463B69D31A022B01D991
:10164C0003239BE12D4B1B6803F00203002BF0D00E
:10165C002A4B1B6823F0F8027B685B69DB00274987
:10166C0013430B6015E0264B00221A60FFF736FC83
:10167C00386108E0FFF732FC02463B69D31A022BB3
:10168C0001D903237AE11D4B1B6803F00203002BE5
:10169C00F0D17B681B6803F00803002B3AD07B6801
:1016AC009B69002B19D0174B01221A60FFF716FC0F
:1016BC00386108E0FFF712FC02463B69D31A022B93
:1016CC0001D903235AE10D4B5B6A03F00203002B93
:1016DC00F0D0012000F0A6FA1CE00A4B00221A60A0
:1016EC00FFF7FCFB38610FE0FFF7F8FB02463B69A4
:1016FC00D31A022B08D9032340E100BF001002408B
:10170C0000004242800442429E4B5B6A03F002039B
:10171C00002BE9D17B681B6803F00403002B00F05D
:10172C00A6800023FB75974BDB6903F08053002BDD
:10173C000DD1944BDB69934A43F08053D361914BA9
:10174C00DB6903F08053BB60BB680123FB758E4BD8
:10175C001B6803F48073002B18D18B4B1B688A4ACF
:10176C0043F480731360FFF7B9FB386108E0FFF7AF
:10177C00B5FB02463B69D31A642B01D90323FDE068
:10178C00814B1B6803F48073002BF0D07B68DB6803
:10179C00012B06D17B4B1B6A7A4A43F0010313627F
:1017AC002DE07B68DB68002B0CD1764B1B6A754AED
:1017BC0023F001031362734B1B6A724A23F0040378
:1017CC0013621CE07B68DB68052B0CD16D4B1B6A2C
:1017DC006C4A43F0040313626A4B1B6A694A43F078
:1017EC00010313620BE0674B1B6A664A23F001038B
:1017FC001362644B1B6A634A23F0040313627B6815
:10180C00DB68002B15D0FFF769FB38610AE0FFF7A6
:10181C0065FB02463B69D31A41F28832934201D9E7
:10182C000323ABE0574B1B6A03F00203002BEED0F3
:10183C0014E0FFF753FB38610AE0FFF74FFB024659
:10184C003B69D31A41F28832934201D9032395E0C4
:10185C004C4B1B6A03F00203002BEED1FB7D012BDA
:10186C0005D1484BDB69474A23F08053D3617B6831
:10187C00DB69002B00F08180424B5B6803F00C03AA
:10188C00082B61D07B68DB69022B46D13F4B0022D1
:10189C001A60FFF723FB386108E0FFF71FFB0246D5
:1018AC003B69D31A022B01D9032367E0354B1B6824
:1018BC0003F00073002BF0D17B681B6AB3F5803FFB
:1018CC0008D1304B5B6823F400327B689B682D4950
:1018DC0013434B602B4B5B6823F474127B68196ABF
:1018EC007B685B6A0B43274913434B60274B0122F0
:1018FC001A60FFF7F3FA386108E0FFF7EFFA0246D7
:10190C003B69D31A022B01D9032337E01D4B1B680B
:10191C0003F00073002BF0D02FE01C4B00221A6058
:10192C00FFF7DCFA386108E0FFF7D8FA02463B69AA
:10193C00D31A022B01D9032320E0124B1B6803F0AE
:10194C000073002BF0D118E07B68DB69012B01D10F
:10195C00012313E00B4B5B68FB60FB6803F48032E4
:10196C007B681B6A9A4206D1FB6803F470127B6891
:10197C005B6A9A4201D0012300E000231846183715
:10198C00BD4680BD00100240007000406000424225
:10199C0080B584B000AF786039607B68002B01D1D2
:1019AC000123D0E06A4B1B6803F007033A689A42A4
:1019BC0010D9674B1B6823F0070265493B6813433A
:1019CC000B60634B1B6803F007033A689A4201D023
:1019DC000123B8E07B681B6803F00203002B20D0C6
:1019EC007B681B6803F00403002B05D0594B5B6824
:1019FC00584A43F4E06353607B681B6803F00803A8
:101A0C00002B05D0534B5B68524A43F46053536030
:101A1C00504B5B6823F0F0027B689B684D49134385
:101A2C004B607B681B6803F00103002B40D07B6884
:101A3C005B68012B07D1474B1B6803F40033002B69
:101A4C0015D101237FE07B685B68022B07D1414BEA
:101A5C001B6803F00073002B09D1012373E03D4B8D
:101A6C001B6803F00203002B01D101236BE0394BFF
:101A7C005B6823F003027B685B68364913434B6059
:101A8C00FFF72CFAF8600AE0FFF728FA0246FB6829
:101A9C00D31A41F28832934201D9032353E02D4BE0
:101AAC005B6803F00C027B685B689B009A42EBD18D
:101ABC00274B1B6803F007033A689A4210D2244B59
:101ACC001B6823F0070222493B6813430B60204B31
:101ADC001B6803F007033A689A4201D0012332E0F5
:101AEC007B681B6803F00403002B08D0194B5B6860
:101AFC0023F4E0627B68DB68164913434B607B6818
:101B0C001B6803F00803002B09D0124B5B6823F40D
:101B1C0060527B681B69DB000E4913434B6000F07D
:101B2C0021F802460B4B5B681B0903F00F030A49B3
:101B3C00CB5C22FA03F3094A1360094B1B68184665
:101B4C00FFF78AF9002318461037BD4680BD00BF49
:101B5C000020024000100240B42400083400002091
:101B6C003800002090B48AB000AF2A4B3C1D0FCB3C
:101B7C0084E80F0040F201233B800023FB6100232B
:101B8C00BB6100237B6200237B6100233B62224B01
:101B9C005B68FB61FB6903F00C03042B02D0082B80
:101BAC0003D02DE01D4B3B622DE0FB699B0C03F039
:101BBC000F0307F12802134413F8243C7B61FB69E3
:101BCC0003F48033002B13D0134B5B685B0C03F0D6
:101BDC00010307F12802134413F8283CBB617B690D
:101BEC000E4A02FB03F2BB69B2FBF3F37B6204E027
:101BFC007B690B4A02FB03F37B627B6A3B6202E06C
:101C0C00064B3B6200BF3B6A18462837BD4690BC6A
:101C1C00704700BFA42400080010024000127A0094
:101C2C0000093D0080B485B000AF78600A4B1B689A
:101C3C000A4AA2FB03235B0A7A6802FB03F3FB60EC
:101C4C0000BFFB685A1EFA60002BF9D100BF00BF21
:101C5C001437BD4680BC704734000020D34D621051
:101C6C0080B582B000AF78607B68002B01D1012376
:101C7C0041E07B6893F83D30DBB2002B06D17B68EA
:101C8C00002283F83C207868FFF74EF87B6802222C
:101C9C0083F83D207B681A687B680433194610462C
:101CAC0000F06AFA7B68012283F846207B680122E7
:101CBC0083F83E207B68012283F83F207B68012259
:101CCC0083F840207B68012283F841207B68012245
:101CDC0083F842207B68012283F843207B68012231
:101CEC0083F844207B68012283F845207B6801221D
:101CFC0083F83D20002318460837BD4680BD000000
:101D0C0080B485B000AF78607B6893F83D30DBB26F
:101D1C00012B01D0012335E07B68022283F83D20A2
:101D2C007B681B68DA687B681B6842F00102DA602A
:101D3C007B681B68164A934209D07B681B68B3F119
:101D4C00804F04D07B681B68124A934211D17B6888
:101D5C001B689B6803F00703FB60FB68062B10D025
:101D6C007B681B681A687B681B6842F001021A606A
:101D7C0007E07B681B681A687B681B6842F00102ED
:101D8C001A60002318461437BD4680BC704700BF4C
:101D9C00002C01400004004080B582B000AF786098
:101DAC007B681B681B6903F00203022B22D17B6842
:101DBC001B68DB6803F00203022B1BD17B681B68DA
:101DCC006FF002021A617B6801221A777B681B682C
:101DDC009B6903F00303002B03D0786800F0B1F982
:101DEC0005E0786800F0A4F9786800F0B3F97B6836
:101DFC0000221A777B681B681B6903F00403042B11
:101E0C0022D17B681B68DB6803F00403042B1BD115
:101E1C007B681B686FF004021A617B6802221A77D8
:101E2C007B681B689B6903F44073002B03D07868B4
:101E3C0000F087F905E0786800F07AF9786800F02E
:101E4C0089F97B6800221A777B681B681B6903F091
:101E5C000803082B22D17B681B68DB6803F008039E
:101E6C00082B1BD17B681B686FF008021A617B681A
:101E7C0004221A777B681B68DB6903F00303002BD1
:101E8C0003D0786800F05DF905E0786800F050F94F
:101E9C00786800F05FF97B6800221A777B681B6812
:101EAC001B6903F01003102B22D17B681B68DB68C5
:101EBC0003F01003102B1BD17B681B686FF0100212
:101ECC001A617B6808221A777B681B68DB6903F44C
:101EDC004073002B03D0786800F033F905E0786884
:101EEC0000F026F9786800F035F97B6800221A7743
:101EFC007B681B681B6903F00103012B0ED17B6807
:101F0C001B68DB6803F00103012B07D17B681B689E
:101F1C006FF001021A617868FEF790FD7B681B6810
:101F2C001B6903F08003802B0ED17B681B68DB6878
:101F3C0003F08003802B07D17B681B686FF0800255
:101F4C001A61786800F067FA7B681B681B6903F0FC
:101F5C004003402B0ED17B681B68DB6803F0400309
:101F6C00402B07D17B681B686FF040021A617868C0
:101F7C0000F0F9F87B681B681B6903F02003202B29
:101F8C000ED17B681B68DB6803F02003202B07D184
:101F9C007B681B686FF020021A61786800F032FAD7
:101FAC0000BF0837BD4680BD80B584B000AF7860F7
:101FBC0039607B6893F83C30012B01D10223B3E0EC
:101FCC007B68012283F83C207B68022283F83D2049
:101FDC007B681B689B68FB60FB6823F07703FB60E6
:101FEC00FB6823F47F43FB607B681B68FA689A608C
:101FFC003B681B68B3F5005F3ED0B3F5005F00F2A1
:10200C008780B3F5805F00F08580B3F5805F7FD863
:10201C00702B1AD0702B7BD8602B50D0602B77D8BC
:10202C00502B3CD0502B73D8402B58D0402B6FD812
:10203C00302B64D0302B6BD8202B60D0202B67D862
:10204C00002B5CD0102B5AD062E07B6818683B6880
:10205C0099683B685A683B68DB6800F05CF97B6800
:10206C001B689B68FB60FB6843F07703FB607B6835
:10207C001B68FA689A604EE07B6818683B68996840
:10208C003B685A683B68DB6800F045F97B681B6865
:10209C009A687B681B6842F480429A603BE07B68DC
:1020AC0018683B6859683B68DB681A4600F0BCF856
:1020BC007B681B685021184600F013F92BE07B68F5
:1020CC0018683B6859683B68DB681A4600F0DAF818
:1020DC007B681B686021184600F003F91BE07B68E5
:1020EC0018683B6859683B68DB681A4600F09CF836
:1020FC007B681B684021184600F0F3F80BE07B6806
:10210C001A683B681B681946104600F0EAF802E0B2
:10211C0000BF00E000BF7B68012283F83D207B6894
:10212C00002283F83C20002318461037BD4680BDA2
:10213C0080B483B000AF786000BF0C37BD4680BC64
:10214C00704780B483B000AF786000BF0C37BD46D9
:10215C0080BC704780B483B000AF786000BF0C3790
:10216C00BD4680BC704780B483B000AF786000BFC0
:10217C000C37BD4680BC704780B485B000AF78602A
:10218C0039607B681B68FB607B68254A934207D0EB
:10219C007B68B3F1804F03D07B68224A934208D10D
:1021AC00FB6823F07003FB603B685B68FA681343C1
:1021BC00FB607B681A4A934207D07B68B3F1804F6F
:1021CC0003D07B68174A934208D1FB6823F4407311
:1021DC00FB603B68DB68FA681343FB60FB6823F029
:1021EC0080023B685B691343FB607B68FA681A608A
:1021FC003B689A687B68DA623B681A687B689A620B
:10220C007B68074A934203D13B681A697B681A635F
:10221C007B6801225A6100BF1437BD4680BC7047F1
:10222C00002C01400004004080B487B000AFF8607F
:10223C00B9607A60FB681B6A7B61FB681B6A23F0E0
:10224C000102FB681A62FB689B693B613B6923F0E6
:10225C00F0033B617B681B013A6913433B617B696B
:10226C0023F00A037B617A69BB6813437B61FB68CB
:10227C003A699A61FB687A691A6200BF1C37BD46DD
:10228C0080BC704780B487B000AFF860B9607A60EA
:10229C00FB681B6A23F01002FB681A62FB689B69DF
:1022AC007B61FB681B6A3B617B6923F470437B6138
:1022BC007B681B037A6913437B613B6923F0A003A2
:1022CC003B61BB681B013A6913433B61FB687A694C
:1022DC009A61FB683A691A6200BF1C37BD4680BC24
:1022EC00704780B485B000AF786039607B689B68BC
:1022FC00FB60FB6823F07003FB603A68FB681343D8
:10230C0043F00703FB607B68FA689A6000BF1437E0
:10231C00BD4680BC704780B487B000AFF860B96030
:10232C007A603B60FB689B687B617B6923F47F432D
:10233C007B613B681A027B681A43BB6813437A695A
:10234C0013437B61FB687A699A6000BF1C37BD46FA
:10235C0080BC704780B485B000AF786039607B6812
:10236C0093F83C30012B01D1022341E07B68012220
:10237C0083F83C207B68022283F83D207B681B6835
:10238C005B68FB607B681B689B68BB60FB6823F029
:10239C007003FB603B681B68FA681343FB607B6847
:1023AC001B68FA685A607B681B68144A934209D010
:1023BC007B681B68B3F1804F04D07B681B68104AA4
:1023CC0093420CD1BB6823F08003BB603B685B6815
:1023DC00BA681343BB607B681B68BA689A607B68F9
:1023EC00012283F83D207B68002283F83C200023E7
:1023FC0018461437BD4680BC704700BF002C014006
:10240C000004004080B483B000AF786000BF0C378C
:10241C00BD4680BC704780B483B000AF786000BF0D
:10242C000C37BD4680BC704770B500260C4D0D4C6A
:10243C00641BA410A64209D100F022F800260A4D14
:10244C000A4C641BA410A64205D170BD55F8043B80
:10245C0098470136EEE755F8043B98470136F2E70A
:10246C00C4240008C4240008C4240008C82400089C
:10247C0003460244934200D1704703F8011BF9E76D
:10248C00F8B500BFF8BC08BC9E467047F8B500BF55
:08249C00F8BC08BC9E46704725
:1024A40002030405060708090A0B0C0D0E0F101091
:1024B40000000000000000000102030406070809F0
:0424C40031010008DA
:0424C8000D010008FA
:1024CC0001000000010000000100000001000000FC
:1024DC00C800000000000000000000000300000025
:1024EC0000000000050000000500000002000000D4
:1024FC00030000000024F4001000000001000000A4
:0400000508000DEDF5
:00000001FF
